{
  "contractName": "Rental",
  "abi": [
    {
      "inputs": [],
      "payable": false,
      "stateMutability": "nonpayable",
      "type": "constructor"
    },
    {
      "anonymous": false,
      "inputs": [
        {
          "indexed": false,
          "internalType": "string",
          "name": "__make",
          "type": "string"
        },
        {
          "indexed": false,
          "internalType": "uint256",
          "name": "__fee",
          "type": "uint256"
        },
        {
          "indexed": false,
          "internalType": "address",
          "name": "__leasee",
          "type": "address"
        }
      ],
      "name": "Rent",
      "type": "event"
    },
    {
      "payable": true,
      "stateMutability": "payable",
      "type": "fallback"
    },
    {
      "constant": true,
      "inputs": [
        {
          "internalType": "address",
          "name": "",
          "type": "address"
        }
      ],
      "name": "balances",
      "outputs": [
        {
          "internalType": "uint256",
          "name": "",
          "type": "uint256"
        }
      ],
      "payable": false,
      "stateMutability": "view",
      "type": "function"
    },
    {
      "constant": true,
      "inputs": [
        {
          "internalType": "uint256",
          "name": "",
          "type": "uint256"
        }
      ],
      "name": "rentals",
      "outputs": [
        {
          "internalType": "string",
          "name": "model",
          "type": "string"
        },
        {
          "internalType": "bool",
          "name": "isAvailable",
          "type": "bool"
        },
        {
          "internalType": "address",
          "name": "leasee",
          "type": "address"
        },
        {
          "internalType": "address",
          "name": "owner",
          "type": "address"
        },
        {
          "internalType": "uint256",
          "name": "year",
          "type": "uint256"
        },
        {
          "internalType": "uint256",
          "name": "dailyrent",
          "type": "uint256"
        },
        {
          "internalType": "uint256",
          "name": "deposit",
          "type": "uint256"
        },
        {
          "internalType": "uint256",
          "name": "leaseterm",
          "type": "uint256"
        },
        {
          "internalType": "uint256",
          "name": "deviceId",
          "type": "uint256"
        }
      ],
      "payable": false,
      "stateMutability": "view",
      "type": "function"
    },
    {
      "constant": true,
      "inputs": [],
      "name": "getStopped",
      "outputs": [
        {
          "internalType": "bool",
          "name": "",
          "type": "bool"
        }
      ],
      "payable": false,
      "stateMutability": "view",
      "type": "function"
    },
    {
      "constant": false,
      "inputs": [],
      "name": "toggleContractActive",
      "outputs": [],
      "payable": false,
      "stateMutability": "nonpayable",
      "type": "function"
    },
    {
      "constant": true,
      "inputs": [],
      "name": "getDeviceCount",
      "outputs": [
        {
          "internalType": "uint256",
          "name": "",
          "type": "uint256"
        }
      ],
      "payable": false,
      "stateMutability": "view",
      "type": "function"
    },
    {
      "constant": true,
      "inputs": [
        {
          "internalType": "uint256",
          "name": "deviceId",
          "type": "uint256"
        }
      ],
      "name": "getDeviceOwner",
      "outputs": [
        {
          "internalType": "address",
          "name": "",
          "type": "address"
        }
      ],
      "payable": false,
      "stateMutability": "view",
      "type": "function"
    },
    {
      "constant": false,
      "inputs": [
        {
          "internalType": "uint256",
          "name": "deviceId",
          "type": "uint256"
        },
        {
          "internalType": "uint256",
          "name": "rentday",
          "type": "uint256"
        }
      ],
      "name": "rent",
      "outputs": [
        {
          "internalType": "bool",
          "name": "",
          "type": "bool"
        }
      ],
      "payable": true,
      "stateMutability": "payable",
      "type": "function"
    },
    {
      "constant": true,
      "inputs": [
        {
          "internalType": "uint256",
          "name": "deviceId",
          "type": "uint256"
        }
      ],
      "name": "getRentalDeviceInfo",
      "outputs": [
        {
          "internalType": "string",
          "name": "_make",
          "type": "string"
        },
        {
          "internalType": "bool",
          "name": "",
          "type": "bool"
        },
        {
          "internalType": "address",
          "name": "",
          "type": "address"
        },
        {
          "internalType": "address",
          "name": "",
          "type": "address"
        },
        {
          "internalType": "uint256",
          "name": "",
          "type": "uint256"
        },
        {
          "internalType": "uint256",
          "name": "",
          "type": "uint256"
        },
        {
          "internalType": "uint256",
          "name": "",
          "type": "uint256"
        },
        {
          "internalType": "uint256",
          "name": "",
          "type": "uint256"
        },
        {
          "internalType": "uint256",
          "name": "",
          "type": "uint256"
        }
      ],
      "payable": false,
      "stateMutability": "view",
      "type": "function"
    },
    {
      "constant": false,
      "inputs": [
        {
          "internalType": "string",
          "name": "model",
          "type": "string"
        },
        {
          "internalType": "address payable",
          "name": "owner",
          "type": "address"
        },
        {
          "internalType": "uint256",
          "name": "year",
          "type": "uint256"
        },
        {
          "internalType": "uint256",
          "name": "dailyrent",
          "type": "uint256"
        },
        {
          "internalType": "uint256",
          "name": "deposit",
          "type": "uint256"
        }
      ],
      "name": "addNewDevice",
      "outputs": [
        {
          "internalType": "uint256",
          "name": "",
          "type": "uint256"
        }
      ],
      "payable": false,
      "stateMutability": "nonpayable",
      "type": "function"
    },
    {
      "constant": false,
      "inputs": [
        {
          "internalType": "uint256",
          "name": "deviceId",
          "type": "uint256"
        }
      ],
      "name": "returnDevice",
      "outputs": [
        {
          "internalType": "bool",
          "name": "",
          "type": "bool"
        }
      ],
      "payable": false,
      "stateMutability": "nonpayable",
      "type": "function"
    }
  ],
  "bytecode": "0x608060405260008060006101000a81548160ff0219169083151502179055506000600160006101000a81548173ffffffffffffffffffffffffffffffffffffffff021916908373ffffffffffffffffffffffffffffffffffffffff16021790555034801561006c57600080fd5b5033600060016101000a81548173ffffffffffffffffffffffffffffffffffffffff021916908373ffffffffffffffffffffffffffffffffffffffff1602179055506111f7806100bd6000396000f3fe6080604052600436106100915760003560e01c80636619fa7a116100595780636619fa7a1461028357806374a1bd98146103cb578063783a112b146104465780639f9843d614610496578063af94a1d1146104e957610091565b80631385d24c14610093578063197419d5146100aa57806327e235e3146100d957806337a0701a1461013e5780634c32164114610169575b005b34801561009f57600080fd5b506100a8610631565b005b3480156100b657600080fd5b506100bf6106b2565b604051808215151515815260200191505060405180910390f35b3480156100e557600080fd5b50610128600480360360208110156100fc57600080fd5b81019080803573ffffffffffffffffffffffffffffffffffffffff1690602001909291905050506106c8565b6040518082815260200191505060405180910390f35b34801561014a57600080fd5b506101536106e0565b6040518082815260200191505060405180910390f35b34801561017557600080fd5b5061026d600480360360a081101561018c57600080fd5b81019080803590602001906401000000008111156101a957600080fd5b8201836020820111156101bb57600080fd5b803590602001918460018302840111640100000000831117156101dd57600080fd5b91908080601f016020809104026020016040519081016040528093929190818152602001838380828437600081840152601f19601f820116905080830192505050505050509192919290803573ffffffffffffffffffffffffffffffffffffffff1690602001909291908035906020019092919080359060200190929190803590602001909291905050506106ed565b6040518082815260200191505060405180910390f35b34801561028f57600080fd5b506102bc600480360360208110156102a657600080fd5b81019080803590602001909291905050506108c9565b60405180806020018a1515151581526020018973ffffffffffffffffffffffffffffffffffffffff1673ffffffffffffffffffffffffffffffffffffffff1681526020018873ffffffffffffffffffffffffffffffffffffffff1673ffffffffffffffffffffffffffffffffffffffff16815260200187815260200186815260200185815260200184815260200183815260200182810382528b818151815260200191508051906020019080838360005b8381101561038857808201518184015260208101905061036d565b50505050905090810190601f1680156103b55780820380516001836020036101000a031916815260200191505b509a505050505050505050505060405180910390f35b3480156103d757600080fd5b50610404600480360360208110156103ee57600080fd5b8101908080359060200190929190505050610b1a565b604051808273ffffffffffffffffffffffffffffffffffffffff1673ffffffffffffffffffffffffffffffffffffffff16815260200191505060405180910390f35b61047c6004803603604081101561045c57600080fd5b810190808035906020019092919080359060200190929190505050610b62565b604051808215151515815260200191505060405180910390f35b3480156104a257600080fd5b506104cf600480360360208110156104b957600080fd5b8101908080359060200190929190505050610d75565b604051808215151515815260200191505060405180910390f35b3480156104f557600080fd5b506105226004803603602081101561050c57600080fd5b8101908080359060200190929190505050610f63565b60405180806020018a1515151581526020018973ffffffffffffffffffffffffffffffffffffffff1673ffffffffffffffffffffffffffffffffffffffff1681526020018873ffffffffffffffffffffffffffffffffffffffff1673ffffffffffffffffffffffffffffffffffffffff16815260200187815260200186815260200185815260200184815260200183815260200182810382528b818151815260200191508051906020019080838360005b838110156105ee5780820151818401526020810190506105d3565b50505050905090810190601f16801561061b5780820380516001836020036101000a031916815260200191505b509a505050505050505050505060405180910390f35b600060019054906101000a900473ffffffffffffffffffffffffffffffffffffffff1673ffffffffffffffffffffffffffffffffffffffff163373ffffffffffffffffffffffffffffffffffffffff161461068857fe5b6000809054906101000a900460ff16156000806101000a81548160ff021916908315150217905550565b60008060009054906101000a900460ff16905090565b60026020528060005260406000206000915090505481565b6000600380549050905090565b60008060009054906101000a900460ff161561070557fe5b600061070f6106e0565b90506107196110a3565b604051806101200160405280898152602001600115158152602001600073ffffffffffffffffffffffffffffffffffffffff1681526020018873ffffffffffffffffffffffffffffffffffffffff168152602001878152602001868152602001858152602001600081526020018381525090506003819080600181540180825580915050906001820390600052602060002090600802016000909192909190915060008201518160000190805190602001906107d692919061111d565b5060208201518160010160006101000a81548160ff02191690831515021790555060408201518160010160016101000a81548173ffffffffffffffffffffffffffffffffffffffff021916908373ffffffffffffffffffffffffffffffffffffffff16021790555060608201518160020160006101000a81548173ffffffffffffffffffffffffffffffffffffffff021916908373ffffffffffffffffffffffffffffffffffffffff1602179055506080820151816003015560a0820151816004015560c0820151816005015560e082015181600601556101008201518160070155505050819250505095945050505050565b606060008060008060008060008060006108e16106e0565b905060008b101580156108f35750808b105b6108fc57600080fd5b6109046110a3565b60038c8154811061091157fe5b906000526020600020906008020160405180610120016040529081600082018054600181600116156101000203166002900480601f0160208091040260200160405190810160405280929190818152602001828054600181600116156101000203166002900480156109c45780601f10610999576101008083540402835291602001916109c4565b820191906000526020600020905b8154815290600101906020018083116109a757829003601f168201915b505050505081526020016001820160009054906101000a900460ff161515151581526020016001820160019054906101000a900473ffffffffffffffffffffffffffffffffffffffff1673ffffffffffffffffffffffffffffffffffffffff1673ffffffffffffffffffffffffffffffffffffffff1681526020016002820160009054906101000a900473ffffffffffffffffffffffffffffffffffffffff1673ffffffffffffffffffffffffffffffffffffffff1673ffffffffffffffffffffffffffffffffffffffff168152602001600382015481526020016004820154815260200160058201548152602001600682015481526020016007820154815250509050806000015181602001518260400151836060015184608001518560a001518660c001518760e001518861010001518898509a509a509a509a509a509a509a509a509a5050509193959799909294969850565b600060038281548110610b2957fe5b906000526020600020906008020160020160009054906101000a900473ffffffffffffffffffffffffffffffffffffffff169050919050565b60008060009054906101000a900460ff1615610b7a57fe5b6000610b846106e0565b905060008410158015610b9657508084105b610b9f57600080fd5b600060038581548110610bae57fe5b90600052602060002090600802019050600115158160010160009054906101000a900460ff16151514610be057600080fd5b338160010160016101000a81548173ffffffffffffffffffffffffffffffffffffffff021916908373ffffffffffffffffffffffffffffffffffffffff16021790555060008160010160006101000a81548160ff0219169083151502179055508381600601819055507f792747cf50f7adf8a7ef951cc04a41e0494abe8bbbdcc47ff3ed74ae209ad8c98160000182600401548360010160019054906101000a900473ffffffffffffffffffffffffffffffffffffffff1660405180806020018481526020018373ffffffffffffffffffffffffffffffffffffffff1673ffffffffffffffffffffffffffffffffffffffff168152602001828103825285818154600181600116156101000203166002900481526020019150805460018160011615610100020316600290048015610d595780601f10610d2e57610100808354040283529160200191610d59565b820191906000526020600020905b815481529060010190602001808311610d3c57829003601f168201915b505094505050505060405180910390a160019250505092915050565b60008060009054906101000a900460ff1615610d8d57fe5b600060038381548110610d9c57fe5b9060005260206000209060080201905060008160010160019054906101000a900473ffffffffffffffffffffffffffffffffffffffff1690503373ffffffffffffffffffffffffffffffffffffffff168260020160009054906101000a900473ffffffffffffffffffffffffffffffffffffffff1673ffffffffffffffffffffffffffffffffffffffff1614610e3157600080fd5b6000670de0b6b3a764000083600601548460040154020290506000670de0b6b3a764000084600501540290503373ffffffffffffffffffffffffffffffffffffffff166108fc839081150290604051600060405180830381858888f19350505050158015610ea3573d6000803e3d6000fd5b508273ffffffffffffffffffffffffffffffffffffffff166108fc829081150290604051600060405180830381858888f19350505050158015610eea573d6000803e3d6000fd5b5060018460010160006101000a81548160ff02191690831515021790555060008460010160016101000a81548173ffffffffffffffffffffffffffffffffffffffff021916908373ffffffffffffffffffffffffffffffffffffffff160217905550600084600601819055506001945050505050919050565b60038181548110610f7057fe5b9060005260206000209060080201600091509050806000018054600181600116156101000203166002900480601f01602080910402602001604051908101604052809291908181526020018280546001816001161561010002031660029004801561101c5780601f10610ff15761010080835404028352916020019161101c565b820191906000526020600020905b815481529060010190602001808311610fff57829003601f168201915b5050505050908060010160009054906101000a900460ff16908060010160019054906101000a900473ffffffffffffffffffffffffffffffffffffffff16908060020160009054906101000a900473ffffffffffffffffffffffffffffffffffffffff16908060030154908060040154908060050154908060060154908060070154905089565b60405180610120016040528060608152602001600015158152602001600073ffffffffffffffffffffffffffffffffffffffff168152602001600073ffffffffffffffffffffffffffffffffffffffff16815260200160008152602001600081526020016000815260200160008152602001600081525090565b828054600181600116156101000203166002900490600052602060002090601f016020900481019282601f1061115e57805160ff191683800117855561118c565b8280016001018555821561118c579182015b8281111561118b578251825591602001919060010190611170565b5b509050611199919061119d565b5090565b6111bf91905b808211156111bb5760008160009055506001016111a3565b5090565b9056fea265627a7a723158205d41abd5106d2a19cfaa424339ceadcd5de089cdf0f3548b2d0db03d89fbecee64736f6c63430005100032",
  "source": "pragma solidity >=0.5.0 <0.6.0;\r\n\r\nimport {DeviceLib} from \"./DeviceLib.sol\";\r\n\r\ncontract Rental {\r\n    \r\n    bool private stopped = false;\r\n    address private manager;\r\n    address payable nulladdress = address(0x0);\r\n    mapping(address => uint256) public balances;\r\n     //The constructor. We assign the manager to be the creator of the contract.It could be enhanced to support passing maangement off.\r\n    constructor() public  \r\n    {\r\n        manager = msg.sender;\r\n    }\r\n\r\n    //Check if sender isAdmin, this function alone could be added to multiple functions for manager only method calls\r\n    modifier isAdmin() {\r\n        assert(msg.sender == manager);\r\n        _;\r\n    }\r\n    \r\n    \r\n    event Rent(\r\n       string __make,\r\n       uint256 __fee,\r\n       address __leasee\r\n    );\r\n    \r\n    \r\n    //Check if the contracts features are deactivated\r\n    function getStopped() public view returns(bool) { return stopped; }\r\n\r\n    \r\n    function toggleContractActive() isAdmin public {\r\n        // You can add an additional modifier that restricts stopping a contract to be based on another action, such as a vote of users\r\n        stopped = !stopped;\r\n    }\r\n\r\n\r\n    //Number of Devices available for rent\r\n    DeviceLib.Device[] public rentals;\r\n\r\n    //Return Total Number of Devices\r\n    function getDeviceCount() public view returns(uint) {\r\n        return rentals.length;\r\n    }\r\n    \r\n    function getDeviceOwner(uint deviceId) public view returns(address){\r\n        \r\n        return rentals[deviceId].owner;\r\n    }\r\n    \r\n   //function register(address user) public returns(bool){\r\n        //address account = msg.sender;\r\n    //    address account = user;\r\n     //   balances[account] = 0;\r\n//   }\r\n\r\n   //function getUserBalance(address user) public view returns (uint256) {\r\n   //     uint balance_user = balances[user];\r\n   //     return balance_user;\r\n   // }\r\n\r\n\r\n    //function deposit(uint256 amount) payable public returns(bool){\r\n    //  uint256 amount_inwei = amount*10**18;\r\n    //  require (msg.value == amount_inwei);\r\n    //  balances[msg.sender]+=amount;\r\n     // return true;\r\n    //}\r\n\r\n    //function withdraw(uint256 amount) payable external returns(bool){\r\n    //  uint256 balances_inwei = balances[msg.sender]*10**18;\r\n    //  require (msg.value<=balances_inwei);\r\n    //  uint256 amount_inwei = amount*10**18;\r\n     // msg.sender.transfer(amount_inwei);\r\n    //  balances[msg.sender]-=amount;\r\n    //  return true;\r\n   // }\r\n  \r\n    function () payable external {\r\n\r\n    }\r\n\r\n    //Renting a device \r\n    function rent(uint deviceId, uint rentday) public payable returns (bool) {\r\n      //Never Ever want to be false, therefore we use assert\r\n      assert(!stopped);   \r\n      uint totalDevices = getDeviceCount();\r\n\r\n      require(deviceId >= 0 && deviceId < totalDevices);\r\n      //Reference to the device that will be rented \r\n      DeviceLib.Device storage deviceToBeRented = rentals[deviceId];\r\n    \r\n      require(deviceToBeRented.isAvailable == true); \r\n     // uint256 totalfee = rentday * deviceToBeRented.dailyrent + deviceToBeRented.deposit;\r\n      deviceToBeRented.leasee = msg.sender;\r\n      deviceToBeRented.isAvailable = false;\r\n      deviceToBeRented.leaseterm = rentday;\r\n      emit Rent(deviceToBeRented.model, deviceToBeRented.dailyrent, deviceToBeRented.leasee);\r\n      \r\n      return true;\r\n    \r\n    }\r\n\r\n    // Retrieving the device data necessary for user\r\n    function getRentalDeviceInfo(uint deviceId) public view returns (string memory _make, bool, address, address, uint, uint, uint, uint, uint) {\r\n      \r\n      uint totalDevices = getDeviceCount();\r\n      require(deviceId >= 0 && deviceId < totalDevices);\r\n      DeviceLib.Device memory specificDevice = rentals[deviceId];\r\n      return (specificDevice.model, specificDevice.isAvailable, specificDevice.leasee, specificDevice.owner, specificDevice.year, specificDevice.dailyrent, specificDevice.deposit, specificDevice.leaseterm, specificDevice.deviceId);\r\n    }\r\n    \r\n    \r\n    \r\n    //Add RentableDevice\r\n    function addNewDevice(string memory model, address payable owner, uint year,uint dailyrent, uint deposit) public returns (uint) {\r\n        assert(!stopped); \r\n        uint count = getDeviceCount();\r\n        DeviceLib.Device memory newDevice = DeviceLib.Device(model, true, address(0x0), owner, year, dailyrent, deposit, 0, count);\r\n        rentals.push(newDevice);\r\n        \r\n         return count;\r\n    }\r\n    \r\n    //Allow device Owner to Mark device as returned\r\n    function returnDevice(uint deviceId) public returns (bool) {\r\n        assert(!stopped); \r\n        DeviceLib.Device storage specificDevice = rentals[deviceId];\r\n        address payable leasee = address(uint160(specificDevice.leasee));\r\n        // cast the addreess to address payable in 0.5.0//in 0.6.0 address payable newadrr = payable(addr)\r\n        require(specificDevice.owner == msg.sender);\r\n        uint256 totalfee_inwei = specificDevice.dailyrent * specificDevice.leaseterm *10**18;\r\n        uint256 deposit_inwei = specificDevice.deposit *10**18; \r\n        //balances[msg.sender]+=totalfee;\r\n        msg.sender.transfer(totalfee_inwei);\r\n        leasee.transfer(deposit_inwei);\r\n        specificDevice.isAvailable = true;\r\n        specificDevice.leasee = address(0x0);\r\n        specificDevice.leaseterm = 0;\r\n        return true;\r\n    }\r\n\r\n}",
  "sourcePath": "C:/Users/Christina/RentalSystem/contracts/Rental.sol",
  "compiler": {
    "name": "solc",
    "version": "0.5.16+commit.9c3226ce.Emscripten.clang"
  },
  "schemaVersion": "3.2.3",
  "updatedAt": "2020-09-05T17:04:20.031Z",
  "devdoc": {
    "methods": {}
  },
  "userdoc": {
    "methods": {}
  }
}